:0400000002EF0BF010
:08000800046ED8CF05F0E0CF33
:1000100006F00001E9CF0CF0EACF07F0E1CF08F0DD
:10002000E2CF09F0D9CF0AF0DACF0BF0F3CF12F01C
:10003000F4CF13F0FACF14F0F5CF15F0F6CF16F099
:10004000F7CF17F0F8CF18F0FBCF19F000C00EF083
:1000500001C00FF002C010F003C011F00E01C5ABDB
:1000600035EF00F0CDBB6DEF00F00EC000F00FC01B
:1000700001F010C002F011C003F00CC0E9FF07C08E
:10008000EAFF078E08C0E1FF09C0E2FF0AC0D9FFFE
:100090000BC0DAFF12C0F3FF13C0F4FF14C0FAFF65
:1000A00015C0F5FF16C0F6FF17C0F7FF18C0F8FF20
:1000B00019C0FBFF045006C0E0FF05C0D8FF1000C8
:1000C0000E01CDABFED79DCF22F099CF01F022A239
:1000D00002D09D989D88000112000001036A4350E0
:1000E000230FE96E000E0320EA6EEACF3BF1E9CF61
:1000F0003AF1E6DF3BC1EAFF3AC1E9FF01C0EFFF99
:10010000010E43241F0B445C04E0010E43241F0B2B
:10011000436E0E01CD9B000135EF00F04F4B0A00FE
:100120004F4B0A004F4B0A004F4B0A004F4B0A003F
:100130004F4B0A004F4B0A004F4B0A004F4B0A002F
:100140004F4B0A004F4B0A004F4B0A004F4B0A001F
:10015000496E76616C696420496E70757421205413
:10016000727920416761696E2E0A000009092A2A06
:100170002A47726F75702032332045453241204C3A
:10018000616220362A2A2A0A0D00417661696C6173
:10019000626C6520436F6D6D616E64733A0A000096
:1001A0002020202D5475726E696E67204C45447373
:1001B000204F4E2D2020202020202020202D54753F
:1001C000726E696E67204C454473204F46462D2061
:1001D0002020202020202020202D466C617368697B
:1001E0006E67204C4544732D0A00202020202020DB
:1001F000204C45442078206F6E2020202020202095
:1002000020202020202020202020204C4544207821
:10021000206F666620202020202020202020202003
:1002200020202020204C4544207820666C61736893
:100230000A0D000057686572652078203D20312C3A
:10024000322C33206F7220340A0D6C6F7765722068
:10025000616E642075707065726361736520646F90
:100260006573206E6F74206D61747465720A0D0081
:10027000494D504F5254414E543A2053706163657A
:100280002061726520726571756972656421212132
:10029000204261636B737061636520646F657320D6
:1002A0006E6F7420776F726B210A0D002D436861A9
:1002B0006E67696E67204C454420427269676874B6
:1002C0006E6573732D0A00004272696768746E650B
:1002D00073735B76616C75655D2C207768657265FC
:1002E0002076616C7565203D2030202D2039392025
:1002F00028706F736974697665206E756D626572BA
:1003000073290A0D2D2D2D2D2D2D2D2D2D2D2D2D1E
:100310002D2D2D2D2D2D2D2D2D2D2D2D2D2D2D2D0D
:100320002D2D2D2D2D2D2D2D2D2D2D2D2D2D2D2DFD
:100330000A0D0000020E0101115F0CE3010EEA6ECE
:10034000110EE96EEF5006E003D000D000D000009F
:10035000EF2EFBD70001B8EF01F00E01CDA9FED7BB
:10036000010110519A6E9EA2FED7116B0001E2D7D7
:1003700012000900F55210E0F6CF0DF1F7CF0EF1A3
:10038000F8CF0FF1F5CF10F1E8DF0DC1F6FF0EC188
:10039000F7FF0FC1F8FFEDD71200EF520FE0EACFE1
:1003A0007EF0E9CF7DF0EFCF10F1D7DF7EC0EAFF1E
:1003B0007DC0E9FFE92AD8B4EA2AEFD72FEF0CF085
:1003C0007F6B446A036A4450230FE96E000E0320DA
:1003D000EA6EEFCF80F0010E44241F0B446E805173
:1003E0002008F0E07F517F2B7D25E96E000E7E21F5
:1003F000EA6E80C0EFFF80510D081AE07F511308AC
:1004000017E3036A4450230FE96E000E0320EA6EDF
:10041000EFCF80F0010E44241F0B446E7F517F2BE1
:100420007D25E96E000E7E21EA6E80C0EFFFE3D7E6
:100430007F077F517D25E96E000E7E21EA6EEF6A0F
:100440007DC001F040EF0CF00EC110F10DC10FF1B5
:1004500010C1EAFF01010FC1E9FFEF521FE010C117
:1004600003F00FC1E9FF03C0EAFFEF50600810E29C
:1004700010C1EAFF0FC1E9FFEF507A0809E310C18C
:1004800003F00FC1E9FF03C0EAFF200EEF5CEF6E3F
:100490000F2BD8B4102B0001DBD701010DC101F0E7
:1004A0000EC102F00001120010C1EAFF01010FC1EC
:1004B000E9FFEFCF13F112C1EAFF11C1E9FFEF50DD
:1004C000135D17E110C103F00FC1E9FF03C0EAFF9C
:1004D000EF5203E1000E016E21D010C103F00F5165
:1004E0000F2BD8B4102B112BD8B4122B0001DCD752
:1004F000010110C103F00FC1E9FF03C0EAFFEFCF14
:1005000013F112C103F011C1E9FF03C0EAFFEF507C
:10051000135D02E2FF0E01D0010E016E0001120018
:10052000010EEA6E0D0EE96EEF500DE00A0E016E3F
:10053000006A002EFED7012EFBD75F0E006E002E44
:10054000FED7EF2EF3D7120010C1EAFF01010FC151
:10055000E9FFEF5233E010C114F10FC113F112C1E2
:1005600016F111C115F116C1EAFF15C1E9FFEF52ED
:1005700014E014C1EAFF13C1E9FFEFCF17F116C170
:10058000EAFF15C1E9FFEF50175D07E1132BD8B45F
:10059000142B152BD8B4162BE6D716C1EAFF15C1BC
:1005A000E9FFEF5205E10FC101F010C102F009D0DF
:1005B0000F2BD8B4102B0001C7D70101000E016E1C
:1005C000026E00015EEF0AF001012451D8B471D02F
:1005D000006E2851D8B46DD0002604E3810E0026A9
:1005E00068E204D07F0E005E64E363E025C12CF175
:1005F00029512C1B258F298F27512B03F4CF2EF146
:1006000026512A03F4CF03F0F3CF2DF12B03F3503F
:100610002E27F4502D23000E032227512A03F350D6
:100620002E27F4502D23000E026A032202222551A8
:100630002B03F3502D27F4500322000E02222551E4
:100640002A03F3500326F4500222000E016A01220D
:1006500027512903F3502D27F4500322000E0222C4
:10066000012226512903F3500326F4500222000EE2
:10067000012225512903F3500226F4500122002AB9
:1006800001BE05D02D370336023601360006000EB6
:100690002DAF0AD0032A02220122015005E10250A7
:1006A00003E1035001E1002A2CBF018E2CAF019E13
:1006B00004D0006A016A026A036A000112008E0E09
:1006C000006E29C101F028C102F0036A015209E15C
:1006D00002C001F0026A080E005E015202E1006AE7
:1006E00008D0D89001BE04D0023601360006F9D7F2
:1006F000019E120001012851D8B4A5D0346F2C51AD
:10070000D8B4A1D0345F05E37F0E3427D8B09BD096
:1007100006D0810E345FD8A096D0D8B494D034C11E
:1007200000F0016A026A036A336B29C132F1328F29
:100730002AC131F12BC130F1190E346F2F51305FC6
:100740000DE2010E315F0AE2325F08E2335F06E23A
:10075000332B322B312B2F51302728D02E51315FA4
:1007600012E2010E325F0FE2335F0DE2332B322BC8
:100770002E5131272F51302719E3312B17E1322B1E
:1007800015E1332B13D02D518009325F0EE2010E9B
:10079000335F0BE2332B2D51800932272E51312745
:1007A000E9E3322BE7E1332BE5D70380342F01D087
:1007B0000BD0D8903037313732373337D8900336B3
:1007C000023601363537BAD735A106D0D890013276
:1007D00002320332353302D0000635E035BF1ED079
:1007E000D89030373137323733372F51305F07E207
:1007F000010E315F04E2325F02E2335F1AE32E51F1
:10080000315F05E2010E325F02E2335F12E32D51E8
:100810008009325F03E2010E335F0BE3032A09E133
:10082000022A07E1012A05E1002A0DE00132023225
:10083000033229C134F12D51341B34AF02D0018E63
:1008400006D0019E04D0006A016A026A036A0001B0
:100850001200800ED8A202D001012D1B0101326BC3
:10086000336B29C131F12D51311B2851D8B4DFD060
:10087000306F006E2C51D8B4E3D0305FD8B483D041
:100880003EE32DC136F1368F2EC135F12FC134F143
:10089000336BD8903633353334333333302FF8D786
:1008A00031AF03D03281E0D0329130913289010EE4
:1008B000EA6E2B0EE96EEBD0329931BF0AD030A12F
:1008C00013D03633353334333333002AD8B4C7D05A
:1008D0000BD036BF0CD0D890333734373537363756
:1008E0000006D8B4BCD0F5D7328D6DD0329D29C169
:1008F00031F129AF02D0368FABD0369FA9D02CC1B1
:1009000030F12CC100F02851305F29C136F1368F0B
:100910002AC135F12BC134F1336BD89036333533DE
:1009200034333333302FF8D731AF03D032839CD0F8
:1009300032933091328B010EEA6E2F0EE96EA7D002
:10094000329B31BF0AD030A113D036333533343324
:100950003333002AD8B483D00BD036BF0CD0D89014
:1009600033373437353736370006D8B478D0F5D733
:10097000328F29D0329F2DC131F12DAF02D0368F69
:1009800067D0369F65D02DC136F1368F2EC135F137
:100990002FC134F131AF04D0369F328565D0329506
:1009A000336B3091010EEA6E2B0EE96E70D031BFC1
:1009B0001CD029C131F130A106D036333533343360
:1009C0003333002A4CE033AF0BD0342B09E1352B05
:1009D00007E1362B05E1363335333433002A3FE067
:1009E00032BD84D732BFC6D71CD0800E361B36AF7F
:1009F00004D03AD02DC131F10AD029C131F136539A
:100A000006E1355304E1345302E1006A21D036BFD8
:100A100008D0D8903337343735373637002EF7D7EC
:100A20001ED031AF02D0368F13D0369F11D02CC1DB
:100A300000F02DC136F12EC135F12FC134F108D0AF
:100A400028C100F029C136F12AC135F12BC134F19A
:100A500036C101F035C102F034C103F034D0006A70
:100A6000016A026A036A2FD0336B341F351F361FA9
:100A7000331F332B05E1342B03E1352B01E1362BFA
:100A800032B112D732B354D732B589D7B3D7EF507A
:100A9000342705E3352B03E1362BD8B43081ED52F2
:100AA000EF50352703E3362BD8B43081ED52EF50A9
:100AB000EFBE01D0800A3627D8B0308132B9FCD6DB
:100AC00032BB3ED774D70001120001011C6B1B6BB7
:100AD0001A6B7F0E196F206B1F6B1E6B1D6B2181B4
:100AE00021932195236B1551161105E1006A016AC6
:100AF000026A036A0DD12351232B1525E96E000EDE
:100B00001621EA6EEFCF22F12253D8B4C4D021A12E
:100B10000FD0225120080CE0219122512B0803E133
:100B20002193ADD005D022512D0802E12183A7D019
:100B300021B107D022512E0804E121B502D0218530
:100B40009ED021B199D022512F08D8B095D02251F2
:100B50003908D8A091D0300E225F21A553D01CC1F6
:100B600027F11BC126F11AC125F119C124F12B6B04
:100B70002A6B200E296F820E286F000125DD03C02D
:100B80001CF102C01BF101C01AF100C019F10101F2
:100B9000296B22C128F1000192DD03C027F102C0B8
:100BA00026F101C025F100C024F103C02BF102C0E1
:100BB0002AF101C029F100C028F11CC12FF11BC18D
:100BC0002EF11AC12DF119C12CF194DDD89220C15A
:100BD0002BF11FC12AF11EC129F11DC128F103C04B
:100BE0002FF102C02EF101C02DF100C02CF131DE39
:100BF00003C020F102C01FF101C01EF100C01DF1B1
:100C000039D00101276B266B200E256F820E246FD1
:100C100020C12BF11FC12AF11EC129F11DC128F1EC
:100C20000001D2DC03C027F102C026F101C025F18A
:100C300000C024F10101296B22C128F100013FDD30
:100C4000D89227C12BF126C12AF125C129F124C14F
:100C500028F103C02FF102C02EF101C02DF100C018
:100C60002CF1F7DD03C020F102C01FF101C01EF11D
:100C700000C01DF105D0010121B101D00CD000014F
:100C800001012351232B1525E96E000E1621EA6E72
:100C9000EFCF22F139D721A319D0276B266B800E15
:100CA000256F7F0E246F20C12BF11FC12AF11EC1B9
:100CB00029F11DC128F1000187DC03C020F102C029
:100CC0001FF101C01EF100C01DF1010117511811E3
:100CD00017E023530CE0230718C1EAFF17C1E9FF0F
:100CE00023511525EF6E000E1621EC6E09D018C1A8
:100CF000EAFF17C1E9FF16C1ECFFED5215C1EFFF86
:100D00001DC100F01EC101F01FC102F020C103F09F
:100D10000001C5EF06F00101106B105114082EE31D
:100D200010510D25E96E000E0E21EA6EEF502F08CE
:100D300009E210510D25E96E000E0E21EA6EEF500A
:100D4000390805E20D512E0817E10E5315E1036A2B
:100D50000F51450F016E000E032210510D25E96E53
:100D6000000E0E21EA6EEFCF17F103C0EAFF01C0BB
:100D7000E9FF17C1EFFF0F2B102BCFD7166B450ED6
:100D8000156F186B176B0001A0D603C014F102C0D9
:100D900013F101C012F100C011F111C100F012C134
:100DA00001F013C102F014C103F07BEF0AF08E0EC4
:100DB000006E01010D51005E0EC102F00FC101F085
:100DC000028E005209E0D890025202E1015204E082
:100DD00002320132002EF7D70EAF05D0011E021EDF
:100DE000012AD8B4022A0001D1EF0AF04C0E7F6F1D
:100DF000450E806F440E816F200E826F310E836F1F
:100E0000200E846F4F0E856F4E0E866F876B4C0ED3
:100E1000886F450E896F440E8A6F200E8B6F310EDE
:100E20008C6F200E8D6F4F0E8E6F460E8F6F906FF2
:100E3000916B4C0E926F450E936F440E946F200E83
:100E4000956F320E966F200E976F4F0E986F4E0E65
:100E5000996F9A6B4C0E9B6F450E9C6F440E9D6F65
:100E6000200E9E6F320E9F6F200EA06F4F0EA16F4F
:100E7000460EA26FA36FA46B4C0EA56F450EA66F16
:100E8000440EA76F200EA86F330EA96F200EAA6F15
:100E90004F0EAB6F4E0EAC6FAD6B4C0EAE6F450E82
:100EA000AF6F440EB06F200EB16F330EB26F200ED5
:100EB000B36F4F0EB46F460EB56FB66FB76B4C0E77
:100EC000B86F450EB96F440EBA6F200EBB6F340E6B
:100ED000BC6F200EBD6F4F0EBE6F4E0EBF6FC06B4E
:100EE0004C0EC16F450EC26F440EC36F200EC46F0F
:100EF000340EC56F200EC66F4F0EC76F460EC86FFB
:100F0000C96FCA6B4C0ECB6F450ECC6F440ECD6FC4
:100F1000200ECE6F310ECF6F200ED06F460ED16FE8
:100F20004C0ED26F410ED36F530ED46F480ED56F57
:100F3000D66B4C0ED76F450ED86F440ED96F200E6E
:100F4000DA6F320EDB6F200EDC6F460EDD6F4C0E5B
:100F5000DE6F410EDF6F530EE06F480EE16FE26B04
:100F60004C0EE36F450EE46F440EE56F200EE66F06
:100F7000330EE76F200EE86F460EE96F4C0EEA6FF6
:100F8000410EEB6F530EEC6F480EED6FEE6B4C0E97
:100F9000EF6F450EF06F440EF16F200EF26F340EBE
:100FA000F36F200EF46F460EF56F4C0EF66F410E88
:100FB000F76F530EF86F480EF96FFA6B420EFB6F26
:100FC000520EFC6F490EFD6F470EFE6F480EFF6F0D
:100FD000540E0101006F4E0E016F450E026F530E4D
:100FE000036F046F056B066B7EC00EF17DC00DF1C3
:100FF000000124EC02F002C00EF101C00DF102C0AC
:1010000010F101C00FF10101126B7F0E116F000191
:1010100054EC02F0015216E11C0EF66E010EF76E52
:10102000000EF86EB9EC01F00D0E0101106F000119
:10103000ADEC01F00A0E0101106F0001ADEC01F002
:101040008F80DCD27EC00EF17DC00DF124EC02F069
:1010500002C00EF101C00DF102C010F101C00FF18C
:101060000101126B880E116F000154EC02F0015265
:1010700016E1200EF66E010EF76E000EF86EB9EC5A
:1010800001F00D0E0101106F0001ADEC01F00A0E30
:101090000101106F0001ADEC01F08F90AFD27EC066
:1010A0000EF17DC00DF124EC02F002C00EF101C082
:1010B0000DF102C010F101C00FF10101126B920E8F
:1010C000116F000154EC02F0015216E1240EF66E8D
:1010D000010EF76E000EF86EB9EC01F00D0E010175
:1010E000106F0001ADEC01F00A0E0101106F00015C
:1010F000ADEC01F08F8282D27EC00EF17DC00DF189
:1011000024EC02F002C00EF101C00DF102C010F19A
:1011100001C00FF10101126B9B0E116F000154EC25
:1011200002F0015216E1280EF66E010EF76E000E67
:10113000F86EB9EC01F00D0E0101106F0001ADEC7D
:1011400001F00A0E0101106F0001ADEC01F08F9269
:1011500055D27EC00EF17DC00DF124EC02F002C02C
:101160000EF101C00DF102C010F101C00FF101013B
:10117000126BA50E116F000154EC02F0015216E142
:101180002C0EF66E010EF76E000EF86EB9EC01F043
:101190000D0E0101106F0001ADEC01F00A0E01010E
:1011A000106F0001ADEC01F08F8428D27EC00EF1EB
:1011B0007DC00DF124EC02F002C00EF101C00DF172
:1011C00002C010F101C00FF10101126BAE0E116FE0
:1011D000000154EC02F0015216E1300EF66E010EE1
:1011E000F76E000EF86EB9EC01F00D0E0101106FF4
:1011F0000001ADEC01F00A0E0101106F0001ADEC31
:1012000001F08F94FBD17EC00EF17DC00DF124EC76
:1012100002F002C00EF101C00DF102C010F101C0D8
:101220000FF10101126BB80E116F000154EC02F0C6
:10123000015216E1340EF66E010EF76E000EF86ED6
:10124000B9EC01F00D0E0101106F0001ADEC01F0E1
:101250000A0E0101106F0001ADEC01F08F86CED1B6
:101260007EC00EF17DC00DF124EC02F002C00EF143
:1012700001C00DF102C010F101C00FF10101126BAC
:10128000C10E116F000154EC02F0015216E1380E4C
:10129000F66E010EF76E000EF86EB9EC01F00D0E51
:1012A0000101106F0001ADEC01F00A0E0101106F99
:1012B0000001ADEC01F08F96A1D17EC00EF17DC092
:1012C0000DF124EC02F002C00EF101C00DF102C0DC
:1012D00010F101C00FF10101126BCB0E116F000173
:1012E00054EC02F0015224E13C0EF66E010EF76E52
:1012F000000EF86EB9EC01F00D0E0101106F000147
:10130000ADEC01F00A0E0101106F0001ADEC01F02F
:101310000101066B0651090809E38F70500E0D6F2D
:10132000000190EC02F00101062BF4D768D1000116
:101330007EC00EF17DC00DF124EC02F002C00EF172
:1013400001C00DF102C010F101C00FF10101126BDB
:10135000D70E116F000154EC02F0015224E1400E4F
:10136000F66E010EF76E000EF86EB9EC01F00D0E80
:101370000101106F0001ADEC01F00A0E0101106FC8
:101380000001ADEC01F00101066B0651090809E30B
:101390008F72500E0D6F000190EC02F00101062BD0
:1013A000F4D72DD100017EC00EF17DC00DF124ECEB
:1013B00002F002C00EF101C00DF102C010F101C037
:1013C0000FF10101126BE30E116F000154EC02F0FA
:1013D000015224E1440EF66E010EF76E000EF86E17
:1013E000B9EC01F00D0E0101106F0001ADEC01F040
:1013F0000A0E0101106F0001ADEC01F00101066B56
:101400000651090809E38F74500E0D6F000190EC2E
:1014100002F00101062BF4D7F2D000017EC00EF1DC
:101420007DC00DF124EC02F002C00EF101C00DF1FF
:1014300002C010F101C00FF10101126BEF0E116F2C
:10144000000154EC02F0015224E1480EF66E010E48
:10145000F76E000EF86EB9EC01F00D0E0101106F81
:101460000001ADEC01F00A0E0101106F0001ADECBE
:1014700001F00101066B0651090809E38F76500E51
:101480000D6F000190EC02F00101062BF4D7B7D0EC
:1014900000017EC00EF17DC00DF124EC02F002C00F
:1014A0000EF101C00DF102C010F101C00FF10101F8
:1014B000126BFB0E116F0001A4EF02F0015002103D
:1014C000D8B488D04C0EF66E010EF76E000EF86E92
:1014D000B9EC01F00D0E0101106F0001ADEC01F04F
:1014E0000A0E0101106F0001ADEC01F07EC00EF19B
:1014F0007DC00DF110D403C010F102C00FF101C086
:101500000EF100C00DF103C02BF102C02AF101C0A1
:1015100029F100C028F101012F6B2E6B200E2D6FD9
:10152000820E2C6F00017AEC03F003C00AF102C0B6
:1015300009F101C008F100C007F10AC127F109C192
:1015400026F108C125F107C124F101012B6B2A6B9B
:10155000296B870E286F0001E4EC02F003C010F144
:1015600002C00FF101C00EF100C00DF103C02BF15C
:1015700002C02AF101C029F100C028F101012F6B3E
:101580002E6B480E2D6F850E2C6F00017AEC03F048
:1015900003C010F102C00FF101C00EF100C00DF147
:1015A00006D402C00CF101C00BF10CC102F00BC15A
:1015B00001F00136023601360236013602360136B6
:1015C0000236013602360136023602C0A1FF01C0E2
:1015D000A0FF14D0500EF66E010EF76E000EF86EDE
:1015E000B9EC01F00D0E0101106F0001ADEC01F03E
:1015F0000A0E0101106F0001ADEC01F001010001C4
:1016000051EF0CF0818E819CF86AF29A078E0E01E0
:10161000550EA06FAA0EA06FA091170EB56F080E01
:10162000FB6FFC6F090EFD6F550EA06FAA0EA06F29
:10163000A081DD6BDA6BDC6B060EDE6F600ED86F9F
:10164000226A9F86400E9B6E030E9C6EA60E9E6EB7
:10165000900E9D6E436A446A5A6A596A0F01116B73
:10166000196B216B3A6B3B6B3C6B396B366B376B91
:10167000386B356B1C6A1D6A5B90886A896A8A9030
:101680008A928A948A96CF0E8A148A6E8A9C8A8E4F
:101690000C0EA86EF30EAE16040EAE12A88E8A982B
:1016A000AE503F0B4009AE6E800EA26EC06ABE6A9D
:1016B000010EBF6EF90EBC6E800EBD6E0E01C58BA5
:1016C000CDAB04D0000160EC00F00E01C00EF212B0
:1016D0005BB0A8D04352D8B4A4D06C0EF66E010E05
:1016E000F76E000EF86E0001B9EC01F00D0E01016D
:1016F000106F0001ADEC01F00A0E0101106F000146
:10170000ADEC01F08A0EF66E010EF76E000EF86E6B
:10171000B9EC01F00D0E0101106F0001ADEC01F00C
:101720000A0E0101106F0001ADEC01F0A00EF66E83
:10173000010EF76E000EF86EB9EC01F00D0E01010E
:10174000106F0001ADEC01F00A0E0101106F0001F5
:10175000ADEC01F0EA0EF66E010EF76E000EF86EBB
:10176000B9EC01F00D0E0101106F0001ADEC01F0BC
:101770000A0E0101106F0001ADEC01F0340EF66E9F
:10178000020EF76E000EF86EB9EC01F00D0E0101BD
:10179000106F0001ADEC01F00A0E0101106F0001A5
:1017A000ADEC01F0700EF66E020EF76E000EF86EE4
:1017B000B9EC01F00D0E0101106F0001ADEC01F06C
:1017C0000A0E0101106F0001ADEC01F0AC0EF66ED7
:1017D000020EF76E000EF86EB9EC01F00D0E01016D
:1017E000106F0001ADEC01F00A0E0101106F000155
:1017F000ADEC01F0C80EF66E020EF76E000EF86E3C
:10180000B9EC01F00D0E0101106F0001ADEC01F01B
:101810000A0E0101106F0001ADEC01F05B800E01BA
:1018200001D056D74450435C3FE0036A4450230F35
:10183000E96E000E0320EA6EEFCF5CF05CC010F1A1
:101840000001ADEC01F0010E44241F0B446E5C500E
:101850000D0829E1EA6A0A0EE96ECDEF01F00D0EDE
:101860000101106F0001ADEC01F00A0E0101106FD3
:101870000001ADEC01F07E6B230E7D6FE0EF01F017
:1018800001C07DF0EA6A5D0EE96EE26A01C0E1FF27
:10189000E752E6CFEEFFFCE17E6B5D0E7D6FF6EF6B
:0C18A00006F0446A436A0E0113D70300EF
:020000040030CA
:0C000000ECFEFCFF9FFFFFDFFFFFFFFF97
:00000001FF
;PIC18F27K40
;CRC=D6F5  CREATED="14-Mar-20 14:21"
