:1000000018EF00F0EA6A370EE96EEF50D8B417EF38
:1000100000F0050E016E006A002EFED7012EFBD700
:100020002E0E006E002EFED700D0EF2EF2D712005B
:10003000818E819CF86AF29A0E01DD6BDA6BDC6BC3
:10004000050EDE6F600ED86F0F01116B196B216BFF
:100050003A6B3B6B3C6B396B366B376B386B356B84
:10006000F00E88140F09886E0F0E8814886EF00E3B
:1000700089140F09896E0F0E8914896EC00E8A14B7
:100080008A6E3F0E8A148A6E056A010E066E030E92
:10009000076E020E086E060E096E070E0A6E050E3A
:1000A0000B6E040E0C6E0C0E0D6E0D0E0E6E0F0E02
:1000B0000F6E0E0E106E0A0E116E0B0E126E090EE2
:1000C000136E080E146E320E156E5A0E166E780EE2
:1000D000176E900E186EF40E196E200E1A6EAC0E7E
:1000E0001B6EE80E1C6E460E1D6E080E1E6ED00EA8
:1000F0001F6EB80E206EA00E216E700E226E400E86
:10010000236E100E246E1E0E256E040E266E050E36
:10011000276E0F0E286E0D0E296E020E2A6E030E2C
:100120002B6E0B0E2C6E0C0E2D6E010E2E6E2F6A8A
:10013000060E306E070E316E080E326E090E336EEB
:100140000A0E346E356A106918698D500F0B000A5B
:10015000000121E0010A24E0020A38E0070A46E033
:10016000010A55E0030AD8B46DD0010AD8B491D081
:100170000F0AD8B49ED0010AD8B4ABD0030AD8B4C1
:10018000B2D0010AD8B4BFD0070AD8B4D2D0010A7D
:10019000D8B4E3D0FDD0F00E8F148F6E356AFCD04A
:1001A000F00E8F1401098F6E020E366EFA0E376E46
:1001B00029DF362EFBD7F00E8F148F6E020E366EAF
:1001C000FA0E376E1FDF362EFBD7E6D08F50010FA9
:1001D0000F0B006EF00E8F1400108F6E040E366E33
:1001E000FA0E376E0FDF362EFBD7D6D08F500F0B9F
:1001F000FF0F0F0B006EF00E8F1400108F6E040EA9
:10020000366EFA0E376EFEDE362EFBD7C5D0355071
:10021000352A036A050FE96E000E0320EA6EEF50DF
:100220000F0B006EF00E8F1400108F6E040E366EE2
:10023000FA0E376EE7DE362EFBD73550100801E197
:10024000356AAAD08F50010F070B006EF80E8F147D
:1002500000108F6E3550352A036A050FE96E000EC7
:100260000320EA6EEF50070B006ED8900036003680
:100270000036C70E8F1400108F6E040E366EFA0E05
:10028000376EC0DE362EFBD73550080801E1356ADF
:1002900083D08E50030B366E8ECF00F000320030CC
:1002A000030B36140F0B006EF00E8F1400108F6EC0
:1002B00073D08E50030B366E8ECF00F000320030BC
:1002C000030B36100F0B006EF00E8F1400108F6EA4
:1002D00063D08E500F0BFF0A0F0B006EF00E8F14C1
:1002E00000108F6E59D08E50030B366E8ECF00F0FB
:1002F00000320030030B36180F0B006EF00E8F1417
:1003000000108F6E49D0C70E8F148F6E000E8EB006
:10031000010E366E000E8EA2010E376E8F50070B47
:1003200037143610070B006EF80E8F1400108F6E06
:1003300033D08F50010F3F0B006EC00E8F14001092
:100340008F6E8E500F0B036A150FE96E000E03209F
:10035000EA6EEFCF37F056DE1FD03550352A036AEC
:10036000250FE96E000E0320EA6EEF503F0B006E82
:10037000C00E8F1400108F6E080E366EFA0E376E98
:1003800041DE362EFBD735500A0801E1356A04D02C
:0E039000C00E8F148F6E356A0F01D7D6030092
:020000040030CA
:0C000000ECFEFEFF9FFFFFDFFFFFFFFF95
:00000001FF
;PIC18F27K40
;CRC=F1A8  CREATED="03-Feb-20 11:35"
