:100000002CEF00F0EA6A390EE96EEF50D8B417EF22
:1000100000F0050E016E006A002EFED7012EFBD700
:100020002E0E006E002EFED700D0EF2EF2D712005B
:100030003950016A385C03E238C000F00CD0006A25
:10004000080E3A6E383600363950005CD8B0006E73
:1000500001363A2EF7D71200818E819CF86AF29A07
:100060000E01DD6BDA6BDC6B050EDE6F600ED86F98
:100070000F01116B196B216B3A6B3B6B3C6B396B4E
:10008000366B376B386B356BF00E88140F09886E42
:100090000F0E8814886EF00E89140F09896E0F0EEA
:1000A0008914896EC00E8A148A6E3F0E8A148A6E75
:1000B000056A010E066E030E076E020E086E060E2E
:1000C000096E070E0A6E050E0B6E040E0C6E0C0EFA
:1000D0000D6E0D0E0E6E0F0E0F6E0E0E106E0A0EC2
:1000E000116E0B0E126E090E136E080E146E320E88
:1000F000156E5A0E166E780E176E900E186EF40E60
:10010000196E200E1A6EAC0E1B6EE80E1C6E460E9B
:100110001D6E080E1E6ED00E1F6EB80E206EA00E45
:10012000216E700E226E400E236E100E246E1E0E77
:10013000256E040E266E050E276E0F0E286E0D0E10
:10014000296E020E2A6E030E2B6E0B0E2C6E0C0EF9
:100150002D6E010E2E6E2F6A306E020E316E040E61
:10016000326E080E336E100E346E200E356E366A07
:10017000376A106918698D500F0B000A000120E0E2
:10018000010A23E0020A37E0070A45E0010A53E0CA
:10019000030A69E0010AD8B48AD00F0AD8B497D00C
:1001A000010AD8B4A4D0030AD8B4ABD0010AD8B499
:1001B000B8D0070AD8B4C8D0010AD8B4E5D000D165
:1001C000F00E8F148F6E376AFFD0F00E8F14010976
:1001D0008F6E020E386EFA0E396E14DF382EFBD792
:1001E000F00E8F148F6E020E386EFA0E396E0ADF23
:1001F000382EFBD7E9D08F50010F0F0B006EF00E99
:100200008F1400108F6E040E386EFA0E396EFADEFF
:10021000382EFBD7D9D08F500F0F0F0B006EF00E7A
:100220008F1400108F6E040E386EFA0E396EEADEEF
:10023000382EFBD7C9D0372A37500F0B036A050F6A
:10024000E96E000E0320EA6EEF500F0B006EF00E09
:100250008F1400108F6E040E386EFA0E396ED2DED7
:10026000382EFBD7B1D08F50010F070B006EF80E60
:100270008F1400108F6E372A3750070B036A050F53
:10028000E96E000E0320EA6EEF50070B006ED89067
:10029000003600360036C70E8F1400108F6E040E25
:1002A000386EFA0E396EAEDE382EFBD78DD08E50FA
:1002B000030B386E8ECF00F000320030030B381481
:1002C0000F0B006EF00E8F1400108F6E7DD08E50CD
:1002D000030B386E8ECF00F000320030030B381065
:1002E0000F0B006EF00E8F1400108F6E6DD08E50BD
:1002F0000F0BFF0A0F0B006EF00E8F1400108F6EA5
:1003000063D08E50030B386E8ECF00F00032003079
:10031000030B38180F0B006EF00E8F1400108F6E49
:1003200053D0000E8EB0010E386E000E8EA2010E5C
:10033000396E8F50070B39143810070B006EF80E0A
:100340008F1400108F6E40D0372A37C038F0070E58
:10035000396E6EDE036A00502F0FE96E000E032027
:10036000EA6EEF503F0B006EC00E8F1400108F6EC0
:100370008E500F0B036A150FE96E000E0320EA6E14
:10038000EFCF39F03FDE20D0372A37C038F00A0EE1
:10039000396E4EDE036A0050250FE96E000E032011
:1003A000EA6EEF503F0B006EC00E8F1400108F6E80
:1003B000080E386EFA0E396E25DE382EFBD704D0C3
:0E03C000C00E8F148F6E376A0F01D5D6030062
:020000040030CA
:0C000000ECFEFEFF9FFFFFDFFFFFFFFF95
:00000001FF
;PIC18F27K40
;CRC=0D98  CREATED="04-Feb-20 15:02"
