:0400000063EF01F0B9
:08000800046ED8CF05F0E0CF33
:1000100006F00001E9CF0CF0EACF07F0E1CF08F0DD
:10002000E2CF09F0D9CF0AF0DACF0BF0F3CF12F01C
:10003000F4CF13F0FACF14F0F5CF15F0F6CF16F099
:10004000F7CF17F0F8CF18F0FBCF19F000C00EF083
:1000500001C00FF002C010F003C011F00E01C6A3E2
:1000600035EF00F0CEB3DEEF00F00EC000F00FC0B1
:1000700001F010C002F011C003F00CC0E9FF07C08E
:10008000EAFF078E08C0E1FF09C0E2FF0AC0D9FFFE
:100090000BC0DAFF12C0F3FF13C0F4FF14C0FAFF65
:1000A00015C0F5FF16C0F6FF17C0F7FF18C0F8FF20
:1000B00019C0FBFF045006C0E0FF05C0D8FF1000C8
:1000C000F76AD40FF66E000EF722000EF86E0900E4
:1000D000F550120000188F190F1B711CA71DA61ECA
:1000E000631FD81FFF1FD81F631FA61EA71D711CEB
:1000F0000F1B8F1900187016F0148E135812591117
:100100009C102710001027109C10591158128E13A4
:10011000F0147016F76A280FF66E010EF722000E23
:10012000F86E0900F550120000180F1BA71D631F81
:10013000FF1F631FA71D0F1B0018F01458129C10FF
:1001400000109C105812F01400180F1BA71D631FFD
:10015000FF1F631FA71D0F1B0018F01458129C10DF
:1001600000109C105812F014F76A7C0FF66E010E06
:10017000F722000EF86E0900F550120000184F1A11
:100180005B1CEA1DD31E051F851E731DFF1B641A11
:10019000DD18A117D4168616B3163F170018C0181D
:1001A0004C1979192B195E1822179B1500148C1203
:1001B0007A11FA102C111512A413B01500018D8EAE
:1001C0008D9A8D500F0B05E0010A29E0020A4DE0DF
:1001D00072D0D8901B34036A73DF0900F5CF03F0A7
:1001E0001C6E03C01CF01D6A0E01925103C092FEEA
:1001F0009531FEE3D8901B34036A000161DF0900EA
:10020000F5CF03F01C6E1D6A0E0192511CC092FEC8
:100210009531FEE31B2A1F0E1B164FD00001D8900C
:100220001B34036A77DF0900F5CF03F01C6E03C0AF
:100230001CF01D6A0E01925103C092FE9531FEE33F
:10024000D8901B34036A000165DF0900F5CF03F085
:100250001C6E1D6A0E0192511CC092FE9531FEE388
:100260001B2A1F0E1B1629D00001D8901B34036ACD
:100270007BDF0900F5CF03F01C6E03C01CF01D6A84
:100280000E01925103C092FE9531FEE3D8901B34CB
:10029000036A000169DF0900F5CF03F01C6E1D6AD7
:1002A0000E0192511CC092FE9531FEE31B2A1F0ED7
:1002B0001B1603D000011B6A0E018D8A8D9ECE9302
:1002C000000135EF00F0818E819CF86AF29A078E6A
:1002D0000E01550EA06FAA0EA06FA0910D0E8F6F8C
:1002E000080EEB6F120EF36F110EF46F550EA06F28
:1002F000AA0EA06FA081DD6BDA6BDC6B060EDE6FE1
:10030000600ED86F969B400E956F200E966F899861
:10031000899A0F01116B196B216B3A6B3B6B3C6B2C
:10032000396B366B376B386B356BF00E88140F09F1
:10033000886E8898889A889C889EF00E89140F0988
:10034000896ECF0E8914896E3F0E8914896E8A6A70
:1003500010690C0EA86EF30EAE16040EAE12A88E27
:100360008898AE503F0B4009AE6E800EA26EF20E22
:10037000A16EA06AC06ABE6A010EBF6EF90EBC6EA5
:10038000800EBD6E0E01C683C00EF212969A200E2C
:0A039000966E000E956EFFD7030075
:020000040030CA
:0C0000008CFEFCFF9FFFFFDFFFFFFFFFF7
:00000001FF
;PIC18F27K40
;CRC=952F  CREATED="24-Feb-20 12:04"
